:020000040800F2
:10000000501D00200101000843320008F92E0008AD
:10001000413200087F0A0008A53A000800000000ED
:10002000000000000000000000000000473200084F
:10003000930C000800000000453200084932000817
:100040001B0100081B0100081B0100081B01000820
:100050001B0100081B0100081B0100081B01000810
:100060001B0100081B0100081B0100081B01000800
:100070001B0100081B010008D50B0008E10B00085C
:100080001B0100081B0100081B0100081B010008E0
:10009000993A00081B0100081B0100081B01000819
:1000A0001B0100081B0100081B0100081B010008C0
:1000B000AD320008B93200081B0100081B0100081E
:1000C0001B0100081B0100081B0100081B010008A0
:1000D0001B010008FD3700081B0100081B01000878
:1000E0001B0100081B0100081B010008DFF80CD0F1
:1000F00000F0FAFB00480047954A0008501D002018
:100100000648804706480047FEE7FEE7FEE7FEE7B1
:10011000FEE7FEE7FEE7FEE7FEE7FEE7A93200089E
:10012000ED000008202A04DB203A21FA02F0002129
:10013000704721FA02F3D040C2F1200291400843F7
:100140001946704740EA01039B0703D009E008C93C
:10015000121F08C0042AFAD203E011F8013B00F88C
:10016000013B521EF9D27047D2B201E000F8012BD8
:10017000491EFBD270470022F6E710B513460A4627
:1001800004461946FFF7F0FF204610BDF0B480EAA0
:100190000102D40F4200B2EB410F02D202460846E0
:1001A00011464A0042D0C30DDDB2C1F3C752AD1AA9
:1001B000202D35DAC1F3160141F4000204B1524298
:1001C000C5F1200602FA06F12A411044B3EBD05FD4
:1001D00023D0C4B1012DA0EBC35009DCF0BC4FF01B
:1001E000004202EAC352DBB200F5000000F0F1BAAF
:1001F000400000F1807000EBC350A0F1807040EA35
:10020000D170490009E0490841EAC071A0EBC35030
:1002100000F50000400800EBC350F0BC00F0D0BA7D
:100220006142012202EB4101001BF6E7F0BC70477E
:1002300081F00041AAE780F00040A7E780EA0102D0
:1002400010B502F00043400022D04A001FD0010E3A
:1002500001EB1261C0F35600C2F3560240F40000F5
:1002600042F40002A0FB022000047F39140400D0F5
:10027000401C50EA124001D44000491EC2B20C0694
:1002800004EBD010401C4008802A02D003E000207C
:1002900010BD20F00100002900DA0020184310BD35
:1002A00030B480EA010202F0004530F0004221F053
:1002B000004013D090B1C30DD40DC2F31601C0F3AA
:1002C0001600E41A41F4000140F400027D3491422A
:1002D00001D3641C00E04900002C02DA30BC00208D
:1002E00070474FF400000023914201D3891A034361
:1002F00040084FEA4101F7D151B1914202D14FF08C
:10030000004105E002D24FF0010101E06FF0010170
:1003100003EBC450284430BC00F052BA2DE9FE4F24
:10032000804681EA0300C00F0C46009021F0004196
:1003300023F00045B8EB0200A94105D24046214612
:1003400090461C460B46024623F00040104347D01F
:10035000270DC7F30A00C3F30A510290401A019017
:1003600040286BDAC3F3130040F4801B00989246D8
:1003700020B10023D2EB030A63EB0B0B0198594623
:10038000C0F14002504600F0FAF906460D465046CC
:100390005946019A00F002FA10EB0800614100246E
:1003A00087EA115284EAE7731A4340D0009A62B395
:1003B000019A012A4FEA075215DC001B61EB02018A
:1003C0004FF0004202EA0752CDE90042001C41F51D
:1003D000801132462B4600F039FA03B0BDE8F08FA9
:1003E00040462146F9E7001B61EB0201001C41F584
:1003F000801300185B412018A2F5001747EB03019A
:1004000040EAD570B6196D4111E06D084FEA360625
:1004100045EAC0754FEA0752001B61EB0201001C60
:1004200041F5801149084FEA300000195141324628
:100430002B4603B0BDE8F04F00F0F9B90098012257
:1004400040000023D0EB020263EBE07300982146EA
:100450004FEAE074B8EB000061EB0401E9E783F0D8
:1004600000435BE781F0004158E72DE9FE4F81EA48
:10047000030404F0004421F0004100944FF0000B0D
:1004800023F0004350EA01045ED052EA03045BD03B
:10049000C3F30A54C1F30A552C44A4F2F334019473
:1004A000A0FB0254C1F3130141F48011C3F3130301
:1004B00043F4801301FB024400FB034E840A970AB5
:1004C00044EA815447EA8357A4FB076802958D0AE2
:1004D00005FB07854FEA932C04FB0C542705029D6E
:1004E0004FEA065847EA1637B5EB08056EEB070CDE
:1004F000870E920E47EA811742EA8312A7FB020198
:10050000B6EB0B0164EB00042B0D43EA0C335E18D1
:1005100044EB1C50DA465146E7FB0201C5F31304D5
:100520004FEA0B3343EA14534FEA0432019C43EA87
:100530000603A4F10C040294009CCDE900B400F081
:1005400085F903B0BDE8F08F00200146F9E72DE9F9
:10055000F04D81EA030404F0004B21F000451446FD
:100560004FF0000A23F0004150EA050220D054EA7F
:1005700001021DD0C5F30A570246C5F31303C1F3A8
:100580001300C1F30A5640F4801543F48013A7EB1F
:100590000608101BD64608F2FD3873EB050002D39F
:1005A00008F1010801E092185B41B8F1000F03DA8D
:1005B00000200146BDE8F08D00204FF48011064672
:1005C00084460EE0171B73EB050705D3121B63EB84
:1005D000050306434CEA010C49084FEA3000921823
:1005E0005B4150EA0107EDD152EA030012D082EAE2
:1005F000040083EA0501084305D0101BAB4106D275
:100600000122002306E000224FF0004302E06FF0D9
:10061000010253101AEB06004CEB085110EB0A00D4
:1006200041EB0B01BDE8F04D00F001B970B521F0D0
:10063000004303430CD0C1F30A550024D5EB040555
:1006400064EB0403D617AD1AB34102DB0020014668
:1006500070BD201841EB025170BDC10F80EAE070FF
:100660000844CA079623002100F0B3B8962300225D
:10067000114600F0AEB800F0004220F00040C10D7D
:10068000C0F3160040F400007F2901DA0020704713
:10069000962903DCC1F19601C84001E096398840F3
:1006A000002AF4D04042704700F0004230F0004091
:1006B0000AD0C10D01F56071C0F3160042EA015184
:1006C000C20840071143704700200146704701F0FF
:1006D000004330B421F0004150EA010206D00A0D77
:1006E000A2F56072C1F31301002A02DC30BC0020C5
:1006F0007047440F44EAC104C100E01830BC00EB6D
:10070000C25000F05DB80000002801DBC0F10040DD
:10071000002901DBC1F10041884270472DE9F05FFB
:100720000546002092469B46884606468146402460
:100730001BE02846414647462246FFF7F3FC534656
:100740005A46C01A914110D311461846224600F06D
:1007500016F82D1A67EB01084F46224601200021AA
:1007600000F00DF817EB00094E41201EA4F1010422
:10077000DFDC484631462A464346BDE8F09F202A42
:1007800004DB203A00FA02F1002070479140C2F1E8
:10079000200320FA03F3194390407047202A06DB18
:1007A000CB17203A41FA02F043EAE07306E041FA3F
:1007B00002F3D040C2F1200291400843194670472D
:1007C0000029A8BF7047401C490008BF20F0010065
:1007D000704710B4B0FA80FC00FA0CF050EA010443
:1007E00004BF10BC704749B1CCF1200421FA04F4D5
:1007F00011FA0CF118BF012121430843A3EB0C01AE
:10080000CB1D4FEA00614FEA102042BF002010BC10
:10081000704700EBC35010440029A4BF10BC7047C0
:10082000401C490008BF20F0010010BC704710B503
:10083000141E73F1000408DA401C41F10001921803
:100840005B411A4301D120F0010010BD2DE9F04DAC
:1008500092469B4611B1B1FA81F202E0B0FA80F201
:1008600020329046FFF78BFF04460F4640EA0A000D
:1008700041EA0B0153465A46084313D0114653EA46
:10088000010019D0C8F140025046FFF74BFC054665
:100890000E46504659464246FFF771FF084305D0C1
:1008A000012004E020463946BDE8F08D00200543D4
:1008B00046EAE0762C4337430A986305E40AA0EB46
:1008C00008000022FD0A44EA47540A3002D50020FD
:1008D0000146E9E7010510196941DDE908450019FC
:1008E0006941BDE8F04DA2E7064C074D06E0E0681F
:1008F00040F0010394E8070098471034AC42F6D367
:10090000FFF7F8FBD8520008F85200082DE9F04D27
:1009100000231A461B1A8A4103DB00200146BDE86A
:10092000F08DC1F30A52C1F3130141F480154FF069
:10093000000BD10702D100186D41521E002704465A
:1009400040F2FF11384601EB620A3E4680460246FD
:1009500000204FF48011FFF7E5FBC2197141BB186D
:1009600046EB0100B4EB030C75EB000C04D3E41A66
:1009700065EB000517460E46241908F101006D418C
:1009800080463428E3DDF91946EB0600091BA8412F
:1009900003D24FF0FF32134601E0002213461BEB57
:1009A000070046EB0A51BDE8F04DFFF740BF0EB51A
:1009B000C10F80EAE0700844CA07002140F23343C7
:1009C0008DE80E000A460B46FFF740FF03B000BD5E
:1009D0000EB540F2334102910021CDE900110A46E3
:1009E0000B46FFF733FF03B000BD70B5C1F30A52E9
:1009F00001F000450024C1F3130140F2FF3341F43C
:100A000080119A4201DA002070BD40F233439A42CD
:100A1000A2F2334203DC5242FFF784FB00E0904035
:100A20002C43F1D0404270BD70B58C1810F8015BBA
:100A300015F0070301D110F8013B2A1106D110F877
:100A4000012B03E010F8016B01F8016B5B1EF9D17B
:100A50002B0705D40023521E0DD401F8013BFAE701
:100A600010F8013BCB1A921C03E013F8015B01F86C
:100A7000015B521EF9D5A142D8D3002070BDFEE71C
:100A800070B5344D0446286808B901202860A06874
:100A9000E060087884F82B00487884F82C00887887
:100AA00084F82D00C87884F82E00087984F82F0087
:100AB000487984F83000887984F83100C87984F85E
:100AC0003200B4F83100C008A060B4F82F10A18340
:100AD0002968012902D1E06002212960E16841F220
:100AE0008832411A2161914204DDD4F82520521E3A
:100AF000C4F8252041F28832D142D4F8251002DA18
:100B0000491CC4F82510C1EB413108441249A061C9
:100B1000097D012901D0114817E011490968401ADF
:100B2000FFF79BFD0F49FFF789FB0F490968FFF7A6
:100B3000B7FB6860FFF7B8FD04F0DCF90B49FFF77D
:100B4000AFFB10F1FF4F00D30020C4F83300A068C2
:100B5000E06070BD2000002050130020EC5185C2E1
:100B600008000020A69B243FBC08002000007A4417
:100B70001CB5164B002418605C6008209C60C3E91B
:100B800003401C751248124B0180C0F80220A221BC
:100B90008DF800108DF8014001788DF80210417831
:100BA0008DF8031081788DF80410C1788DF8051048
:100BB00001798DF80610407904498DF807001B1F54
:100BC0006A4601F1A00000F063F91CBD3409002061
:100BD0002C000020014800F041BD000064100020FE
:100BE000014800F03BBD00002010002070B50D460C
:100BF000C8B1194C19A10A2609682160014626715D
:100C00002A46601DFFF79EFA601914A10A3509688B
:100C1000C0F805104672ADB204F24C4001F0EFFE90
:100C2000212802D011E0012070BD00F0D1FF044660
:100C300006E000F0CDFF001B642801D9032070BD41
:100C4000084801F0DCFE2128F3D02A46BDE87040B8
:100C50000149044802F010B98C0B00206461730D47
:100C60000A000000D80F002030B590F84050012451
:100C7000AC40C56B6C60046863604368102B03680C
:100C800003D099600068C26030BD9A600068C1609E
:100C900030BD704772B6FEE706490020C8610648BD
:100CA000016941F004010161016941F04001016104
:100CB00070470000A812002000200240064A0021D0
:100CC000D16106490A6942F002020A614861086975
:100CD00040F0400008617047A81200200020024048
:100CE000044B0022DA61044A136943F001031361E3
:100CF00001807047A8120020002002401449002003
:100D0000CA68D306134A04D5D06940F00200D06106
:100D10001020CB685B0705D5D36943F00103D3618D
:100D200040F00400CB69DB0707D0D36943F004032C
:100D3000D361CA6922F00102CA61A0F58072013A4A
:100D400001D0C8607047C86920F00100C8617047D1
:100D500000200240A812002070B5044600F038FFC1
:100D60000546114E09E0601C07D024B100F030FFA9
:100D7000401BA04201D9032070BDF068C007F2D12A
:100D8000F068800601D52020F060F068C00605D428
:100D9000F069C00702D1F068400703D5FFF7AEFF46
:100DA000012070BD002070BD0020024010B586B04B
:100DB000044600F005FE0021012002940091CDE9D7
:100DC000030104A9684600F05BFD00F0ADFD06B02C
:100DD00010BD10B500224FF4FA738C5C8454521C81
:100DE0009A42FADB10BD00000148008870470000FD
:100DF00000FC00082DE9F0410F460546FFF7D6FF3D
:100E000000F0DEFD00244FF4FA760022104606E0E2
:100E1000795CC30099400A43401C042802DA211877
:100E2000B142F5DB00232946022000F087FD241D96
:100E30002D1DB442E9DBBDE8F04100F075BD0000B6
:100E400010B5044600F0BCFD2246002306490220EE
:100E500000F074FD18B100F067FD002010BD00F037
:100E600063FD012010BD000000FC000890F8202068
:100E7000012A07D0022A05D0416A41F4802141624B
:100E800001207047006842690A43426100207047B0
:100E9000F0B590F820500468A468012D05D0022D0B
:100EA00003D0416A41F480214DE014F0406F01D13C
:100EB000E50045D5C4F301640125A5401D608B689C
:100EC0004FF4C0759BB1CE6833434E6843EAC60306
:100ED000066805EB0417F3514FF4C273076803EB80
:100EE00004130E69FE50097D012905D009E00E8822
:100EF000CB6843EA4653EBE70168CE5846F4807668
:100F0000CE501179D2F805304FF4C67641EA03216C
:100F1000036806EB041699511178D2F801204FF4BA
:100F2000C47341EA0221026803EB0413D150006844
:100F300005EB0411425842F0010242500020F0BD7E
:100F4000416A41F4001141620120F0BD10B590F8F2
:100F500020300268012B07D0022B05D0416A41F4F2
:100F600080214162012010BDD2F8000240F0010052
:100F7000C2F80002087D00F01F0301209840D2F85B
:100F80001C328343C2F81C32CB69B3B9D2F80C329D
:100F90008343C2F80C328C894B6864F31F434C695D
:100FA00002EBC404C4F840320C890B6864F31F439D
:100FB0004C6902EBC404C4F84432CB69012B16D14E
:100FC000D2F80C320343C2F80C320C884B6864F33D
:100FD0001F434C6902EBC404C4F840320C89CB684F
:100FE00064F31F434C6902EBC404C4F844328B69B8
:100FF000002BD2F804320ED00343C2F804320B693E
:10100000002BD2F8143208D00343C2F81432096A14
:10101000012904D008E08343EFE78343F5E7D2F8E2
:101020001C120143C2F81C12D2F8000220F0010089
:10103000C2F80002002010BD704770B590F8204043
:10104000012C05D0022C03D0416A41F4802128E014
:10105000046809B32469A40720D04FF4D874056844
:1010600004EB01142D5915F00405956005682D5900
:101070001AD0ED08556005682C5904F00204D460BC
:101080004FF4DA74056804EB01142E5906F00F06CC
:10109000082E0CD308250DE0E468DCE7416A41F432
:1010A00000114162012070BD6D0D1560E3E72D59FF
:1010B00005F00F05156105682D59C5F307259561E4
:1010C00005682C59240C54614FF4DC72046802EB5F
:1010D0000112A4581C700468A458240A5C700468A7
:1010E000A458240C9C700468A258120EDA704FF4B5
:1010F000DE72046802EB0112A4581C710468A45843
:10110000240A5C710468A458240C9C710468A258D9
:10111000120EDA71006829B1016941F02001016104
:10112000002070BDC16841F02001C160F8E72DE9E1
:10113000F05F0546006800244669D0F8049087688F
:10114000D0F80CB0D0F810A0D0F81880F10748D033
:10115000F90714D001218160B80703D5284600F0B3
:1011600008FA0CE0780702D54FF4006407E038076E
:1011700002D54FF4805402E0284600F0F9F9F80552
:1011800016D529684FF480708860B80503D52846C5
:1011900000F0F1F90CE0780502D544F4005407E0C2
:1011A000380502D544F4804402E0284600F0E2F914
:1011B000F80316D529684FF480308860B80303D54A
:1011C000284600F0DAF90CE0780302D544F4004434
:1011D00007E0380302D544F4803402E0284600F0EA
:1011E000CBF9300707D55FEACB6004D5296810201A
:1011F00044F40074C86070074FF0080707D55FEA31
:101200000B7004D52868C760284600F059F9B0076C
:1012100006D52868C068800702D0284600F052F939
:10122000700607D55FEACA6004D52968102044F427
:1012300080640861B00607D55FEA0A7004D52868A3
:101240000761284600F066F9F00606D528680069AF
:10125000800702D0284600F05EF9B00308D55FEAA7
:10126000C96005D5296810204860284600F054F967
:10127000F00307D55FEA097004D52868476028465F
:1012800000F07CF9300446D55FEA497040D5F0059E
:1012900004D55FEAC87001D044F00104B00504D55C
:1012A0005FEA887001D544F00204700504D55FEA56
:1012B000487001D544F00404300529D518F0700FAA
:1012C00026D008F07000402815D006DC102809D080
:1012D00020280AD0302816D10AE050280ED06028E5
:1012E00011D10EE044F008040DE044F010040AE0CF
:1012F00044F0200407E044F0400404E044F080049B
:1013000001E044F480742868816921F070018161F2
:10131000296804204860002C05D0686A2043686270
:101320002846FFF789FEBDE8F09F70B5040003D0A2
:1013300094F8200010B104E0012070BD204600F0B8
:1013400081F82068016841F00101016000F040FC73
:101350000546052604E000F03BFC401B0A2811D896
:1013600020684068C007F6D02068016821F00201BB
:10137000016000F02DFC05460BE000F029FC401B4D
:101380000A2806D9606A40F40030606284F8206060
:10139000D2E7206840688007EFD4207E01282068CB
:1013A00001683DD021F080010160607E0128206845
:1013B000016838D021F040010160A07E012820683A
:1013C000016833D021F020010160E07E012820680F
:1013D00001682ED041F010010160207F01282068B3
:1013E000016829D021F008010160607F0128206890
:1013F000016824D021F004010160D4E9020108430E
:10140000D4E90412114308436168491E0843216866
:10141000C86100206062012084F82000002070BDB7
:1014200041F08001C0E741F04001C5E741F02001F3
:10143000CAE721F01001CFE741F00801D4E741F0FD
:101440000401D9E710B586B0002100910191029105
:1014500003910068174988422AD11748C16941F0B1
:101460000071C161C16901F000710491816941F0AD
:10147000040181618069114C00F0040004904FF474
:10148000006000906946204600F0AEFAA114009179
:1014900002210191032103916946204600F0A4FA3C
:1014A00000221146142000F021FD142000F010FD50
:1014B00006B010BD0064004000100240000801406A
:1014C0007047000010B50F4B0F4A0021FFF7B5FD24
:1014D000002816D10D494FF6FF7208760C4908888E
:1014E000904201D2401C088007480068A0F5807037
:1014F000413806D10448BDE8104002491C30FFF7CE
:10150000BFBA10BD320000204C090020501300204B
:101510000400002070477047704770B5044690F88B
:101520002000012804D0606A40F40020606217E0C7
:10153000022084F820002068016821F00101016088
:1015400000F046FB05460DE000F042FB401B0A2878
:1015500008D9606A40F400306062052084F82000F9
:10156000012070BD20684068C007EDD1606270BD89
:10157000704770477047704770477047704710B5A5
:1015800090F821100022022905D00421816380F8FF
:101590002020012010BD01680B6823F00E030B60B2
:1015A00001680B6823F001030B6090F840300124C0
:1015B00004FA03F1C36B596080F8214080F82020C1
:1015C000104610BD10B590F821100024022903D058
:1015D0000421816301243DE001680A6822F00E02C3
:1015E0000A6001680A6822F001020A601A4A01686A
:1015F000914201D1012121E0174A1432914201D1D7
:1016000010211BE0144A2832914201D1891515E0BE
:10161000114A3C32914201D189140FE00E4A5032F6
:10162000914202D14FF4803108E00B4A643291427A
:1016300002D14FF4801101E04FF08071064A083A60
:101640005160012180F82110002180F82010416BA9
:1016500001B18847204610BD080002402DE9F05F27
:10166000C16B0B6801680A68046C4FF0040C0CFA3B
:1016700004FC4A4DDFF828A14A4E4B4FDFF82CB14D
:10168000DFF82CE11CEA030F2DD05FEA427C2AD55B
:101690000A68920603D40A6822F004020A6001680C
:1016A000A94201D1042119E0514501D1402115E0A1
:1016B000B14202D14FF4806110E0B94202D14FF43F
:1016C00080410BE0594502D14FF4802106E071457D
:1016D00002D14FF4800101E04FF080612F4A083AB7
:1016E0005160C16A3BE04FF0020808FA04F818EABA
:1016F000030F4FF000094FF0010C35D05FEA8278FC
:1017000032D50A68920605D40A6822F00A020A60F5
:1017100080F821C00168A94201D1022119E0514598
:1017200001D1202115E0B14202D14FF4007110E047
:10173000B94202D14FF400510BE0594502D14FF4A8
:10174000003106E0714502D14FF4001101E04FF085
:101750000071124A083A516080F82090816A00298D
:101760001AD0BDE8F05F08470825A5401D4213D0F8
:10177000120711D50A6822F00E020A6090F8401094
:10178000C26B0CFA01F15160C0F838C080F821C07A
:1017900080F82090016BE2E7BDE8F09F080002406E
:1017A0001C00024030000240440002405800024049
:1017B0006C00024030B528B302C8134A14230A440F
:1017C000B2FBF3F29200C263104A826302224277B4
:1017D0000B6843F6F0729343D0E900242243D0E92A
:1017E00002452C432243046922434469224384690D
:1017F00022431A430A6000214163012242770177A4
:10180000084630BD012030BDF8FFFDBF000002409A
:1018100070B5044690F82000002501280CD0012066
:1018200084F8200094F821600020012E06D084F86E
:1018300020000225284670BD022070BD022684F8D3
:101840002160A0632068066826F001060660204635
:10185000FFF70AFAE06A00282068016802D041F028
:101860000E0106E021F0040101602068016841F0EA
:101870000A0101602068016841F001010160D9E7B7
:101880002DE9F047054626480F460126017E01292D
:101890000FD00121814601762868DFF888804CF25C
:1018A0005034022808D0A2462046FFF755FAA8B1C6
:1018B00031E00220BDE8F0872046FFF74DFA08BB73
:1018C0000120FFF7E9F92046FFF746FAD8F8101093
:1018D000064621F00401C8F810101CE04FF0FF305C
:1018E0003860AC6811E02046FFF7E8F95046FFF792
:1018F00033FAD8F81010060021F00201C8F81010D1
:1019000001D03C6007E004F58064D5E9020100EBFA
:101910008120A042E7D8002189F818103046C9E795
:10192000A8120020002002400348016941F0800114
:101930000161002070470000002002402DE9F05FA7
:1019400005461D4888460024017E16461F4601298B
:1019500009D00121814601764CF2503A5046FFF7FA
:10196000FBF918B123E00220BDE8F09F012D02D061
:10197000022D00D00425D346DFF840A015E0220157
:1019800030463946FEF7CEFB81B208EB4400FFF744
:10199000A7F95846FFF7E0F9DAF8102022F0010223
:1019A000CAF8102018B9641CE4B2AC42E7D3002294
:1019B00089F81820D8E70000A81200200020024073
:1019C000064900200A69120607D5054A4A60054AF9
:1019D0004A600969090600D50120704700200240CD
:1019E00023016745AB89EFCD2DE9F84FDFF8A491CE
:1019F0000024A9F1040B23464FF00F0809F1040A53
:101A0000ABF1040EBEE00127A7403A40BA4272D1C2
:101A1000DFF884C14D68A5EB0C0665452BD00DDCC5
:101A2000032D34D005DC35B3012D19D0022D2FD173
:101A30001BE0112D16D0122D2AD119E0B6F5881F02
:101A400019D006DCB6F5803F15D0B6F5801F1FD142
:101A500011E0B6F5001F0ED0B6F5041F18D10AE04C
:101A6000CB6815E0CB681B1D12E0CB6808330FE094
:101A7000CB680C330CE08B682BB1012B4FF00803C3
:101A800003D0476104E0042302E0076100E0002383
:101A9000FF2A01D8064601E000F104064FEA84055A
:101AA00001D9A5F12005376808FA05FC27EA0C07DB
:101AB00003FA05F547EA050737604D68ED0060D584
:101AC000364DAE6946F00106AE61AD6924F00306FD
:101AD00005F001050095324D7719BE68A5072D0F59
:101AE00008FA05FC26EA0C06DFF8B8C0604503D109
:101AF0004FF0000C17E044E0DFF8ACC0604502D1C5
:101B00004FF0010C0FE0DFF8A4C0604502D14FF0A8
:101B1000020C08E0DFF898C0604502D14FF0030CDA
:101B200001E04FF0040C0CFA05FC4CEA060CC7F877
:101B300008C04D68D9F80060ED024D4601D5164346
:101B400000E096432E604D68DAF80060AD0255461D
:101B500001D5164300E096432E604D68DBF8006027
:101B6000AD035D4601D5164300E096432E604D68F7
:101B7000DEF80060ED03754601D5164300E096439C
:101B80002E60641C0A6832FA04F57FF43CAFBDE8AD
:101B9000F88F0000080401400000111000100240FE
:101BA0000000014000080140000C0140001001400D
:101BB00000140140C26821EA02030A4043EA0241DC
:101BC000016170470AB1016170470904FBE7000039
:101BD0000148806870470000A8080020014800689C
:101BE00070470000E8F7FF1F0148006870470000D9
:101BF000ECF7FF1F0148006870470000F0F7FF1F77
:101C000070B5040025D094F83D00002520B984F873
:101C10003C50204600F0B8F8242084F83D002068AD
:101C2000016821F0010101602068016841F4004170
:101C300001602068016821F40041016000F024FA8D
:101C40004D4B6168994201D84C4900E04C498842AB
:101C500001D2012070BD4B492268B0FBF1F15668FA
:101C600026F03F060E43566062689A4206D94FF44A
:101C7000967251434FF47A72B1FBF2F12268491C1B
:101C8000166A26F03F06314311626168994210D806
:101C90004900401EB0FBF1F2521CC2F30B02042AB1
:101CA00001D2042022E0B0FBF1F0401CC0F30B0095
:101CB0001CE0A268F2B301EBC10303EB0116431E63
:101CC000B3FBF6F35B1C43F480431B0549D092B38E
:101CD00001EBC10202EB0111401EB0FBF1F0401C10
:101CE000C0F30B0040F4804040F400402168CA6912
:101CF0004CF6FF739A431043C861D4E907100143BF
:101D00002068026822F0C00211430160D4E9030197
:101D100001432068826848F2FF339A43114381608F
:101D2000D4E9051001432068C26822F0FF02114384
:101D3000C16001E00EE016E02068016841F0010199
:101D400001602564202084F83D00256384F83E501E
:101D5000002070BD01EB4106431EB3FBF6F35B1C94
:101D6000B3E70120C2E701EB4101401EB0FBF1F0F7
:101D7000401CC0F30B00B7E7A086010080841E0062
:101D800000093D0040420F0030B585B000210091B0
:101D90000191029103911E4D01681E4C12220323F2
:101DA0001D48A94216D1A16941F00801A161A169AC
:101DB000039301F008010491C021CDE900126946A6
:101DC000FFF712FEE06940F40010E061E06900F402
:101DD000001019E0114DA94217D1A16941F0080185
:101DE000A161A169039301F0080104914FF44061DE
:101DF000CDE900126946FFF7F7FDE06940F4800085
:101E0000E061E06900F48000049005B030BD00009E
:101E10000054004000100240000C014000580040F7
:101E2000024881680278114481607047A808002048
:101E3000074810B5016841F010010160032000F06F
:101E400075F80F2000F006F800F024F8002010BD0F
:101E50000020024070B50D4D04464FF47A71287889
:101E6000B1FBF0F00A490968B1FBF0F000F066FB45
:101E700048B9102C07D200222146501E00F036F837
:101E800000206C6070BD012070BD0000A80800201B
:101E9000B40800200C4808B5816941F00101816156
:101EA000816901F001010091C16941F08051C16176
:101EB000C069064900F080500090486820F0E0605A
:101EC00040F00070486008BD001002400000014072
:101ED000002809DB00F01F02012191404009800029
:101EE00000F1E020C0F8001170470000F0B40E4B84
:101EF0001B68C3F30223C3F10704042C00D9042494
:101F00001D1D072D01D2002300E0DB1E012606FA6D
:101F100004F56D1E0D409D409E40761E164045EA1C
:101F20000601F0BC01F0F8BD0CED00E0064A00F03F
:101F3000070110684FF6FF03184040EA01200349EB
:101F400008431060704700000CED00E00000FA0547
:101F50002DE9F0470D46040067D0DFF81881D8F866
:101F6000000000F00700A8420CD2D8F8001021F0C1
:101F700007012943C8F80010D8F8000000F0070056
:101F8000A84252D120683C4E810712D5400703D5A4
:101F9000706840F4E06070602078000703D57068D6
:101FA00040F4605070607068A16820F0F000084351
:101FB00070602078C00727D06068012810D0316891
:101FC000022810D0890700292FDA716821F0030157
:101FD00001437160FFF7FCFD074641F288390CE0D0
:101FE00031688903EFE78901EDE7FFF7F1FDC11BD8
:101FF000494502D90320BDE8F0877068616800F0A8
:102000000C00B0EB810FF0D1D8F80010404601F081
:102010000701A9420BD9016821F00701294301609A
:10202000006800F00700A84201D00120E3E7207813
:10203000400705D57068E16820F4E06008437060EF
:102040002078000706D57068216920F4605040EAC6
:10205000C100706000F038F87168084AC1F30311DC
:10206000515CC8400649086006480068FFF7F2FE68
:102070000020C0E700200240001002404A51000842
:10208000B4080020AC0800200448054900684968ED
:10209000044AC1F30221515CC8407047B4080020D3
:1020A000001002405A510008044805490068496878
:1020B000044AC1F3C221515CC8407047B4080020F3
:1020C000001002405A5100080E4B59680E4801F0AA
:1020D0000C02042A11D0082A0FD10C48C1F3834204
:1020E000C903805C0AD55968084AC1F34041921E71
:1020F000515C054A5043B0FBF1F070470449484336
:10210000704700000010024000127A003A510008A7
:1021100000093D002DE9F84F04006FD02078BE4D36
:10212000C00747D06868C0F38100012807D06868FD
:10213000C0F38100022809D16868C00306D5286869
:10214000800337D560680028E7D033E06068B0F5D9
:10215000803F0BD010B1B0F5A02F11D0286820F42B
:1021600080302860286820F4802002E0286840F44D
:1021700080302860606888B1FFF72AFD064609E0D4
:10218000286840F480202860F0E7FFF721FD801BDD
:10219000642873D828688003F7D50BE0FFF718FD93
:1021A000064604E0FFF714FD801B6428F1D8286878
:1021B0008003F7D42078DFF8648280074FF0010AAB
:1021C0004FF0000939D5686810F00C0F07D0686827
:1021D000C0F38100022809D16868C00306D42868CA
:1021E000800714D52069012808D110E02069B0B11A
:1021F000C8F800A0FFF7ECFC064605E007E1FFF792
:10220000E7FC801B0228C4D828688007F7D5286817
:10221000616920F0F80040EAC10028600DE0C8F8CC
:102220000090FFF7D5FC064604E0FFF7D1FC801BC9
:10223000022823D828688007F7D4207800072CD5F7
:102240007748A169D9B1C0F800A0FFF7C1FC0646E4
:1022500004E0FFF7BDFC801B02280FD8686A8007E6
:10226000F7D570484FF4FA510068B0FBF1F00090D8
:1022700000BF0098411E0091FAD20EE07CE0C0F849
:102280000090FFF7A5FC064604E0FFF7A1FC801BC9
:10229000022871D8686A8007F7D4207840075BD598
:1022A000E8690027C00008D4E86940F08050E86180
:1022B000E869012700F0805000905B480168C9057B
:1022C00011D40168834641F480710160FFF780FCFE
:1022D000064604E0FFF77CFC801B64284CD8DBF842
:1022E0000000C005F6D5E06801280AD008B105282D
:1022F00013D0286A20F001002862286A20F0040028
:1023000002E0286A40F001002862E06841F2883B60
:1023100088B1FFF75DFC064609E0286A40F004003A
:102320002862EEE7FFF754FC811B59455BD8286A09
:102330008007F7D50BE0FFF74BFC064604E0FFF7FC
:1023400047FC811B59454ED8286A8007F7D41FB136
:10235000E86920F08050E861E069A8B36968C1F3DA
:102360008101022946D00228484606D0C8F86000FC
:10237000FFF72EFC044639E035E04746C8F8600018
:10238000FFF726FC064604E0FFF722FC801B02282C
:1023900029D828688001F7D4206AB0F5803F05D19C
:1023A0006868A16820F4003008436860D4E9080137
:1023B0000843696821F4741108436860C7F860A095
:1023C000FFF706FC044605E023E0FFF701FC001BD5
:1023D000022808D828688001F7D51AE0FFF7F8FB33
:1023E000001B022802D90320BDE8F88F286880016D
:1023F000F4D40EE00128F7D06868226A00F4803136
:10240000914204D1616A00F47010884201D0012029
:10241000EAE70020E8E70000001002400000424226
:1024200080044242B40800200070004070B50400EF
:1024300009D0606A002540B125616561A56294F804
:10244000510040B10CE0012070BD6068B0F5827FA2
:10245000F4D0E561F2E784F85050204600F040F8EF
:10246000022084F851002068016821F040010160D9
:10247000A088218900F4827001F404410843A189F5
:1024800001F400610843217C01F002010843217D31
:1024900001F001010843218B01F400710843217F01
:1024A00001F03801084394F8201001F0800108433E
:1024B000218D01F40051084321680860A0690421BE
:1024C00001EA1040216848602068C16921F4006178
:1024D000C1616565012084F85100002070BD0000D5
:1024E00000B585B00021009101910291039100682F
:1024F0000F4988421AD10F48816941F480518161A6
:10250000816901F480510491816941F00401816184
:102510008069694600F004000490A0200090022029
:102520000190032003900448FFF75EFA05B000BD58
:1025300000300140001002400008014010B5401E6C
:10254000B0F1807F01D3012010BD4FF0E024606125
:102550000F21601701F0E0FA0020A0610720206140
:10256000002010BD7047704770B590F83C20012ADC
:1025700026D0012580F83C50022280F83D200268D8
:102580005368946823F070060B68334353600D4B17
:1025900002689A4208D0B2F1804F05D00A4B9A42A5
:1025A00002D00A4B9A4204D1496824F080031943AF
:1025B000916080F83D50002180F83C10084670BDC5
:1025C000022070BD002C01400004004000080040C3
:1025D00010B5040003D094F83D0010B107E00120CD
:1025E00010BD002084F83C00204600F01FF80220B7
:1025F00084F83D00211D206800F064FE012084F86D
:10260000460084F83E0084F83F0084F8400084F8D7
:10261000410084F8420084F8430084F8440084F8C0
:10262000450084F83D00002010BD000008B500689A
:102630001449B0F1804F14D0134A904220D1C86998
:1026400040F00200C861C869002200F0020000905A
:1026500011461D20FFF74AFC1D20BDE80840FFF78A
:1026600037BCC86940F00100C861C869012200F0A8
:102670000100009011461C20FFF738FC1C20ECE7FD
:1026800008BD0000001002400004004090F83D101A
:10269000012901D001207047022180F83D10016816
:1026A000CA6842F00102CA6000680B49884208D03B
:1026B000B0F1804F05D00949884202D008498842CC
:1026C00004D1816801F00701062903D0016841F0B7
:1026D0000101016000207047002C0140000400400F
:1026E0000008004070B5044690F83C000025012821
:1026F00017D0012684F83C60022084F83D00206851
:10270000826822F0770222F47F42826008685028B3
:1027100038D00DDC20284FD005DC90B3102811D123
:102720004AE0022070BD302846D040280AD13BE064
:1027300060282FD070280DD0B0F5805F03D0B0F5A1
:10274000005F12D0012584F83D60002084F83C0031
:10275000284670BDCB68D1E90121206800F0EEFD6C
:102760002068816841F0770109E0CB68D1E9012157
:10277000206800F0E3FD2068816841F480418160B9
:10278000E1E719E0CA684968206800F0E9FD5021D6
:10279000206806E0CA684968206800F0F2FD602100
:1027A000206800F0D5FDCEE7CA684968206800F0CF
:1027B000D7FD40212068F4E7226801461046F0E783
:1027C00070472DE9F04104460068C66805694FF07E
:1027D0000007A90713D5B10711D5F91E0161012022
:1027E0002077206880698007204602D0FFF7E8FF45
:1027F00004E000F07EF8204600F07CF827776807B8
:1028000016D5700714D521686FF004000861022006
:1028100020772068806910F4407F204602D0FFF7BF
:10282000CFFF04E000F065F8204600F063F827775A
:10283000280715D5300713D521686FF00800086107
:10284000042020772068C0698007204602D0FFF767
:10285000B7FF04E000F04DF8204600F04BF8277772
:10286000E80616D5F00614D521686FF0100008614F
:10287000082020772068C06910F4407F204602D0ED
:10288000FFF79EFF04E000F034F8204600F032F835
:102890002777E80708D0F00706D021686FF001001D
:1028A0000861204600F028F8280608D5300606D52D
:1028B00021686FF0800008612046FFF753FE68062C
:1028C00008D5700606D521686FF0400008612046E3
:1028D00000F05AF8A8060AD5B00608D521686FF0AE
:1028E000200008612046BDE8F041FFF73CBEBDE88E
:1028F000F08170477047000070B51F490125002620
:102900001E4C884216D12168491C0522B1FBF2F306
:10291000216002FB131184F8205059B984F821502A
:10292000217D012905D1617E012902D1A17E0129E4
:102930001CD0A675124988421CD1207E401CC0B212
:102940002076042802D900F0D9FA2676A5730D4C1A
:1029500002212046FFF72EF904212046FFF72AF92D
:102960002046BDE870400821FFF724B9A17D491C2D
:10297000A175DFE770BD0000440B0020501300205C
:10298000FC0A0020000801407047704710B504465B
:102990000068406994F84110C0F3C010212911D19A
:1029A00080B12068143050E8001F21F0800140E819
:1029B0000012002AF5D1A06B08B1FEF7E0FD204619
:1029C00000F0BDFD2068406994F84210C0F380100B
:1029D000222911D180B12068143050E8001F21F065
:1029E000400140E80012002AF5D1E06B08B1FEF783
:1029F000C6FD204600F07CFD002010BD704710F899
:102A0000411F407808437047F8B5016804460868DC
:102A1000CA684B6910F00F0F4FF0000559D003F052
:102A2000010602F49077374365D0C10705D0D10580
:102A300003D5616C41F001016164410705D5D907F7
:102A400003D0616C41F002016164810705D5D907AB
:102A500003D0616C41F004016164010707D502F005
:102A60002001314303D0616C41F008016164616C65
:102A700000293AD0800604D5900602D5204600F001
:102A80006CFD20684069616CC0F38010090700D4B8
:102A900060B3204600F02CFD20684069400621D537
:102AA0002068143050E8001F21F0400140E8001277
:102AB000002AF5D1E06BA8B16D494163E06BFEF7E8
:102AC00081FD002811D0E06B416B01B0BDE8F04002
:102AD000084783060FD593060DD52046BDE8F8407C
:102AE00000F03BBD2046FFF789FFF8BD2046FFF709
:102AF00085FF6564F8BD266B2023012E7CD1C606B8
:102B00007AD5D60678D508684868009048694FF0AD
:102B10000206400640D5E16B086840680004000CDE
:102B2000E8D0A28D8242E5D9E085886920282DD0A1
:102B300020680C3050E8001F21F4807140E800123A
:102B4000002AF5D12068143050E8001F21F001015F
:102B500040E80012002AF5D12068143050E8001F28
:102B600021F0400140E80012002AF5D184F84230FB
:102B7000256320680C3050E8001F21F0100140E868
:102B80000012002AF5D1E06BFEF7F9FC6663A08D18
:102B9000E18D401A81B22AE0A08DE18D401A81B208
:102BA000E08D0028A6D00029A4D020680C3050E881
:102BB000002F22F4907240E80027002FF5D1206802
:102BC000143050E8002F22F0010240E80027002FC7
:102BD000F5D184F84230256320680C3050E8002F8E
:102BE00022F0100240E80023002BF5D16663204656
:102BF000FFF7CBFEF8BDFFE705062BD5150629D557
:102C000094F841002128F5D1A068B0F5805F01D18A
:102C10002069B0B1206A411C2162216800784860B7
:102C2000E08C401E0004000CE084E3D12068C16801
:102C300021F08001C1602068C16841F04001C1609D
:102C4000D8E7206A0088C0F308004860206A801C2A
:102C50002062E5E74006CDD55006CBD5CA682046B0
:102C600022F04002CA6084F8413000F043F9C1E725
:102C7000A733000870B5040004D094F84100002583
:102C800010B106E0012070BD84F84050204600F0ED
:102C900023F8242084F841002068C16821F4005101
:102CA000C160204600F0BAFC2068016921F490411F
:102CB00001612068416921F02A0141612068C168F1
:102CC00041F40051C1606564202084F8410084F81B
:102CD00042006563002070BDF0B585B00025044654
:102CE000009501950295039500682E49884257D1B9
:102CF0002D48816941F480418161816901F48041FD
:102D00000491816941F0040181618069274E00F0DE
:102D1000040004904FF40070009002200190032002
:102D2000039069463046FEF75FFE3015CDE9000599
:102D3000694630460295FEF757FE1E4E1C48802716
:102D4000C6E90005C6E9025720203561C6E90550ED
:102D50000002F0613046FEF72DFD08B1FDF79AFF45
:102D6000E6637462134E12484436143801C61020CC
:102D7000A1C6000246F810597561C6E906500D4813
:102D80004430FEF717FD08B1FDF784FFA66300226B
:102D9000114625207462FFF7A9F82520FFF798F85F
:102DA00005B0F0BD003801400010024000080140AD
:102DB000580002402010002090F84230202B01D013
:102DC0000220704721B11AB10023036300F082BCD6
:102DD00001207047704770472DE9F843044690F88A
:102DE00041001F4615460E46202802D00220BDE8AD
:102DF000F8838EB185B100206064212084F8410001
:102E0000FEF7E6FEA5848146E584A0684FF0200821
:102E1000B0F5805F02D003E00120E8E7206910B13F
:102E2000354600260EE000250CE08021204600F00B
:102E3000ADFCA0B9BDB115F8010B21684860E08C6C
:102E4000401EE084E08C4B464FF0000200970028C3
:102E5000EBD14FF04001204600F098FC40B184F8DF
:102E600041800320C3E736F8020BC0F30800E4E713
:102E700084F841800020BAE737B5044690F8410055
:102E8000202801D002203EBD019951B34AB32162EE
:102E9000A284E28400206064212384F84130A56B81
:102EA000114BAB62A56B114BEB62A56B104B2B6307
:102EB000A36B586320681346A56B021D2846FEF7D6
:102EC000A7FC21686FF0400008602068143050E8CB
:102ED000001F41F0800140E80012002AF5D10020D7
:102EE0003EBD01203EBD0000A5340008E7340008C7
:102EF000B733000870477047FEE7000070B51F4801
:102F00001D49002401600421C0E901148905C16044
:102F1000C911016149014161047644760125857634
:102F2000C47604774477FEF700FA08B1FDF7B2FEE5
:102F30001248283801464461C0E9064504604460EF
:102F40008460C460056204612830FDF7FFFF08B1AA
:102F5000FDF7A0FE0948FEF7E0FA08B1FDF79AFE7A
:102F600002210648FDF782FF002803D0BDE870402B
:102F7000FDF790BE70BD000000640040D409002041
:102F80000D4808B5416941F00101416140690022E5
:102F900000F00100009001210E20FEF7A7FF0E2097
:102FA000FEF796FF002201210F20FEF79FFFBDE8EC
:102FB00008400F20FEF78CBF0010024070B586B0AD
:102FC000002427480094019402940394816941F0FD
:102FD00020018161816901F020010491816941F042
:102FE00004018161816901F004010491816941F06A
:102FF0000801816180691B4E00F0080004900022E6
:103000004E213046FEF7DEFD012210213046FEF74C
:10301000D9FD01250E20CDE9000569463046CDE9F0
:103020000245FEF7E1FC1020CDE900050320CDE9C3
:10303000025069463046FEF7D7FC4020CDE9000536
:103040000220CDE9024069463046FEF7CDFCCDE9CD
:103050000054694604480295FEF7C6FC06B070BDF0
:103060000010024000080140000C01400D4810B55E
:103070000B4901600C494FF48042C0E90112002164
:10308000C0E9031241618161C1610162FEF7B8FDCF
:10309000002803D0BDE81040FDF7FCBD10BD0000C6
:1030A00000540040FC090020801A06000D4810B5AD
:1030B0000B4901600C494FF48042C0E90112002124
:1030C000C0E9031241618161C1610162FEF798FDAF
:1030D000002803D0BDE81040FDF7DCBD10BD0000A6
:1030E00000580040500A0020801A0600114810B510
:1030F0000F4901604FF4827141604FF400418160DB
:1031000000210222C0E903120122426152028261BF
:103110002022C0E90721416281620A21C162FFF7D2
:1031200085F9002803D0BDE81040FDF7B3BD10BD00
:1031300000300140A40A002010B586B000241748D2
:10314000009401940294039404944FF080410594F8
:1031500001604FF4A671C0E9011441F61F41C0E9B6
:1031600003148461FFF734FA08B1FDF793FD4FF4BF
:103170008050009069460948FFF7B4FA08B1FDF79E
:1031800089FD049404A905480594FFF7EDF900288A
:1031900001D0FDF77FFD06B010BD0000FC0A002045
:1031A00010B586B00024174800940194029403944B
:1031B0000494134905940160C721C0E9011440F645
:1031C0000F61C0E903148461FFF702FA08B1FDF74B
:1031D00061FD4FF48050009069460A48FFF782FA7B
:1031E00008B1FDF757FD049404A906480594FFF7BC
:1031F000BBF9002801D0FDF74DFD06B010BD000061
:1032000000040040440B00200C4810B50A4901603E
:103210004FF461214160002181600C22C160C0E94E
:1032200004128161C161FFF725FD002803D0BDE8CC
:103230001040FDF72FBD10BD00380140D80F002011
:10324000FEE7FEE770477047FEF7EABD30B58FB086
:1032500028216846FCF78FFF14210AA8FCF78BFF92
:103260000120010400248DE8130004904FF4E010C5
:10327000CDE90810022507956846FEF74BFF08B117
:1032800072B6FEE70F20CDE90A054FF48060CDE964
:103290000C4002210AA80E94FEF75AFE002801D025
:1032A00072B6FEE70FB030BD704700000148FFF76F
:1032B00088BA0000FC0A00200148FFF782BA00002B
:1032C000440B0020F0B50268194C1A4D1A4E4FF00D
:1032D0008047A04205D0B84203D0A84201D0B042F6
:1032E00003D122F070034A681A43A04205D0B842C5
:1032F00003D0A84201D0B04203D122F44073CA687F
:103300001A434B6922F080021A4302608A68C26243
:103310000A688262A04201D1096901630121416109
:103320000169C90703D0016921F001010161F0BD04
:10333000002C0140000400400008004010B58468E3
:1033400042EA032224F47F440A432243826010BDF0
:10335000826822F070020A4342F0070181607047E0
:1033600010B5046A036A23F001030362836923F042
:10337000F00343EA021324F00A020A438361026263
:1033800010BD10B5036A046A24F010040462846955
:1033900023F0A00324F4704444EA023243EA01110A
:1033A0008261016210BD10B5406A0021C185C184EF
:1033B000FFF724FB10BD70B5446A2068406994F89B
:1033C0004110C0F3C0100025212904D118B1E584B3
:1033D000204600F0B4F82068406994F84210C0F329
:1033E0008010222904D118B1E585204600F080F82C
:1033F000606C40F0100060642046FFF7FFFA70BD7B
:1034000010B50146406A096809684FF00003890653
:103410002ED4C38501680C3151E8002F22F480724C
:1034200041E80024002CF5D10168143151E8002F47
:1034300022F0010241E80024002CF5D1016814318A
:1034400051E8002F22F0400241E80024002CF5D181
:10345000202180F84210016B012909D101680C314B
:1034600051E8002F22F0100241E80024002CF5D191
:103470004363016B012902D0FFF7ACFC10BD818DC5
:10348000FFF783FA10BD10B5406A01214163016B5B
:10349000012902D0FFF79FFC10BD818D4908FFF77D
:1034A00074FA10BD10B50146406A096809688906BA
:1034B00016D40021C1840168143151E8002F22F094
:1034C000800241E80023002BF5D101680C3151E85E
:1034D000002F42F0400241E80023002BF5D110BD3F
:1034E000FFF708FD10BD10B5406AFFF704FD10BDE1
:1034F00001680C3151E8002F22F4907241E800235A
:10350000002BF5D10168143151E8002F22F001029F
:1035100041E80023002BF5D1016B012909D1016895
:103520000C3151E8002F22F0100241E80023002B5B
:10353000F5D1202180F84210002101637047016815
:103540000C3151E8002F22F0C00241E80023002B8B
:10355000F5D1202180F84110704708B590F842104D
:10356000222901D0022008BD81684FF4805399427E
:1035700001D1026922B1826A99421BD049B10AE0A5
:103580000268816A5268C2F308020A80816A891C53
:1035900008E0016971B10168496801F07F011170AB
:1035A000816A491C8162C18D491E0904090CC185CB
:1035B00003D01BE001684968F1E70168CA6822F09E
:1035C0002002CA600168CA6822F48072CA60016879
:1035D0004A6922F001024A61202180F8421000214C
:1035E0004163026B012A03D0FFF7F4FB002008BD02
:1035F000016301680C3151E8002F22F0100241E80C
:103600000023002BF5D101680A68D20602D50A68AA
:1036100049680091818DFFF7B8F9E7E770B5044676
:1036200000680169E26821F4405111430161A16819
:1036300020690143606901432068C26841F20C635C
:103640009A430A43C26020684169A26921F440712B
:10365000114341611E492068884202D1FEF724FDD2
:1036600001E0FEF711FD00EBC00101EB0011606805
:1036700064228000B1FBF0F3B3FBF2F36FF01806A5
:103680007343B1FBF0F5B1FBF0F605EB8305322394
:1036900003EB0515B5FBF2F5B6FBF2F605F0F00508
:1036A00005EB0615B1FBF0F6B1FBF0F0B0FBF2F064
:1036B0006FF01801484306EB800003EB0010B0FBED
:1036C000F2F0216800F00F002844886070BD00000F
:1036D0000038014037B582B01346039A826204462F
:1036E000838500206064222184F84210E56B1B4929
:1036F000A962E56B1A49E962E56B1A492963E16B36
:1037000048632168E06B091DFEF782F820680168B4
:1037100040680090206948B120680C3050E8001FD4
:1037200041F4807140E80012002AF5D1206814307D
:1037300050E8001F41F0010140E80012002AF5D1D5
:103740002068143050E8001F41F0400140E80012AA
:10375000002AF5D105B0002030BD0000013400087A
:1037600087340008B733000870B50C460546064894
:10377000FFF745F92128FAD022462946BDE87040D6
:103780000148FFF779BB0000D80F00202DE9F8436E
:103790001F4690460D460446089E23E0701C21D02B
:1037A000FEF716FAC01BB0421AD8CEB12068C16825
:1037B000490717D5802D15D0402D13D00168C94376
:1037C00009070FD401680025406800902046FFF7E4
:1037D0008FFE0820606484F840500120BDE8F88323
:1037E0000320FBE72068006835EA000004D00020D1
:1037F0004045D3D00020F1E70120F9E72DE9F84F4B
:10380000954C20680168C943C9067DD4016800272A
:10381000406800902046FFF7B9F8E06B0068406808
:103820008F4EC0F5FE7081B28C4801258D4C018011
:103830003278312A0AD17278322A07D1B278332A03
:1038400004D1F278342A01D104290DD0804684486D
:1038500001F00AF901280BD0307843280AD06328F8
:103860001FD064287ED0EBE0657627756775E7E0AA
:103870002574E5E070784128F5D1B0784C28F2D174
:10388000F0784928EFD130794228ECD1B8F800001F
:103890000528E8D17448A577277507707348077025
:1038A000CEE0707861287DD1B0786D287AD1F0783B
:1038B000652877D13079722874D17079612871D1F7
:1038C000B0796B4FDFF8AC81DFF8AC91772816D177
:1038D000634CF07908346C2803D121463846FDF753
:1038E00089FAF079632803D121464046FDF782FA30
:1038F000F079722803D121464846FDF77BFAB0796A
:1039000072284FD1F07900E0A0E05C4C5C4D4FF4A0
:10391000FA7A6C280AD139462046FDF75AFA2088EF
:10392000514640BA28802046FDF760F9F0796328B7
:103930000AD141465348FDF74CFA2088514640BA17
:1039400028805048FDF752F9F079722878D149461D
:103950004D48FDF73EFA2088514640BA28804A4833
:103960006CE0FFE7707861286AD1B078732867D17E
:10397000F0780D2864D130790A2861D1B8F80000B8
:10398000304410F8051C64295AD110F8041C612930
:1039900056D110F8031C732952D110F8021C0D29BE
:1039A0004ED100E04CE010F8010C0A2848D16776AF
:1039B00067757079022843D13449B07A81F83700AD
:1039C000707A81F83800307A81F83900F07981F81E
:1039D0003A00F07A81F83B00307B81F83C00B07B04
:1039E00081F83D00707B81F83E00002007E032182E
:1039F000C0F10F030B44D27B83F83320401CD1F875
:103A000037208242F3D8F07C012804D0307D10B1F9
:103A1000012802D002E0E77600E0E5761C4891F844
:103A20003620827291F83520C27291F834200273E8
:103A300091F833104173174801881548FDF7D6F8FF
:103A40004FF4FE7206490448FFF7B6F9BDE8F84F97
:103A50000148FEF7D9BF0000D80F0020A4080020BD
:103A6000A8100020501300200000002001000020BA
:103A700000F0000800F4000800F8000874130020AB
:103A8000A6080020681500205C17002068090020A7
:103A9000C8060020A20800200148FDF748BB00002E
:103AA000D4090020FEE700000FB4054B10B503A9B0
:103AB000044A029800F076FB10BC5DF814FB00008D
:103AC000514A0008EC0800200FB4084B10B504A9B7
:103AD00002AA039800F066FB044602A9002000F049
:103AE00092FD204610BC5DF814FB0000074600085C
:103AF000490050EAC12018BF04204A0D18BF40F009
:103B0000010040F2FF72B2EB515F08BF40F00200CB
:103B1000012808BF052070470907090E002804DBAB
:103B200000F1E02080F80014704700F00F0000F171
:103B3000E02080F8141D70472DE9F74F144694B02B
:103B40000021C4E902111599079121F00045C949E6
:103B50008D4206DC1599C4E9000117B00020BDE8CC
:103B6000F08FC549DFF814A3A9423CDD0799C44E84
:103B70000029C44FC44A1599534619DDFCF76FFC60
:103B8000554506D0C14AC24BFCF769FCC4E90001A7
:103B90000AE04FF0D352BE4BFCF761FC32463B4685
:103BA000FCF75DFCC4E9000117B00120BDE8F08F0F
:103BB000FCF7B4FB554506D0B44AB54BFCF7AEFB59
:103BC000C4E900010AE04FF0D352B14BFCF7A6FB69
:103BD00032463B46FCF7A2FBC4E9000117B04FF0A8
:103BE000FF30BDE8F08FAB49A942159978DB21F091
:103BF000004183468846A84AA84BFCF736FC0022C1
:103C0000A74BFCF78BFBFCF7F0FE0990FCF7CFFE0F
:103C100006460F469C4A5346FCF727FC43465A4645
:103C2000FCF720FC80468A46984A994B3046394634
:103C3000FCF71BFC2A0D01250B9242465346FCF76C
:103C400011FC032DC4E9000139D00B98C1F30A51CE
:103C5000401A05EB45111139814230DA9148C346CB
:103C6000784400EB0510CDF80CA00C90D0E90023AF
:103C700030463946FCF7F9FB02460B4604910690A4
:103C800058460399FCF7EBFB80468A4602460B46F2
:103C900058460399FCF7E3FB049B069AFCF7DFFB0D
:103CA00083460C9803913946D0E902233046FCF74D
:103CB000DCFB5A46039BFCF7D2FB6D1CBDE7079863
:103CC0000028A2BF099817B0BDE8F08F616881F0A5
:103CD00000416160099817B04042BDE8F08FFFE7EE
:103CE00084461598C1F31301C0F30A50A0F2F530D1
:103CF0004FEA601800F01F06C6F120001390002064
:103D00000690079041F4801E05206D4676B1664A04
:103D100008EB00017A4452F8213002EB8101B340F4
:103D20004A68139922FA01F1194305E05F4908EB4B
:103D30000002794451F82210A1FB0E27A1FB0C13BD
:103D40001A449A4234BF0123002303EB070A05EB10
:103D50008003D3E901B70F448F4234BF0121002112
:103D600093448B4411B1934502D903E0934501D2AA
:103D7000012100E00021C3E901B7514445F82010BA
:103D8000011EA0F10100C1DC0298059F00F1005066
:103D9000800F12900298DDE903568000FCF707FEC1
:103DA000834628460D91FCF713FE6FF01D02FCF7C9
:103DB0003DFCCDE90E013046FCF70AFE6FF03D02F6
:103DC000FCF734FC80468A463846FCF701FE6FF06B
:103DD0005D02FCF72BFC0746424653461191FCF767
:103DE0009DFADDE90E23FCF799FA5A460D9BFCF784
:103DF00095FA00250E465A4628460D9BFCF72FFBE8
:103E0000DDE90E23FCF72BFB42465346FCF727FB6C
:103E10003A46119BFCF726FBDFF898A0244A53464C
:103E2000FCF723FB07468846234A244B31462846A5
:103E3000FCF71BFB3A464346FCF770FA07468846F8
:103E40004FF0A842534631462846FCF70EFB3A464F
:103E50004346FCF763FA159A12F0004F04D0129A09
:103E600081F0004152421292C4E90001129817B049
:103E7000BDE8F08FFB21E93F7CD90240FB21F93FEF
:103E80007370032E8A19A33B000040543163621AF9
:103E900061B4D03DFB21394183C8C96D305FE43F37
:103EA0000000E03F8415000000150000E21400004F
:103EB000182D4454FB21F93D3326A611460B113C25
:103EC0002DE9FF4D21F0004807460C46B8F1795F17
:103ED00008DAFCF78AFD002801BF0020324904B04F
:103EE000BDE8F08D3A46234610461946FCF7BDFA68
:103EF000054602462D480E460B460621784400F042
:103F00005DF82A463346FCF7B0FADDE90223824623
:103F10008B4638462146FCF7A8FA04460F4652461F
:103F20005B4628463146FCF7A0FA22463B46FCF7A2
:103F300096FA07468A464FF0FF3228463146FCF78C
:103F400075FB1B4A90450ADA3A465346FCF787FA56
:103F500004B00022BDE8F04D134BFCF783BA154ABC
:103F60004245A8BFA8F500154FF00004B8BF124D98
:103F700022462B46FCF773FA0646884622462B4615
:103F800000200949FCF76BFA04460D463A465346B1
:103F900030464146FCF763FA04B022462B46BDE8A2
:103FA000F04DFCF75FBA00000000F03FB8120000CF
:103FB0003333D33F0000E93F0000D23F2DE9F04109
:103FC0004F1E00EBC7010446D1E9000115461E460D
:103FD00037F006020DD02A463346FCF746FA7F1E1C
:103FE00004EBC703D3E90023FCF798F937F0060286
:103FF000F1D1022F25D0042F13D0062F18BFBDE812
:10400000F0812A463346FCF730FAD4E90A23FCF75C
:1040100085F92A463346FCF728FAD4E90823FCF749
:104020007DF92A463346FCF720FAD4E90623FCF74B
:1040300075F92A463346FCF718FAD4E90423FCF74D
:104040006DF92A463346FCF710FAD4E90223FCF74F
:1040500065F92A463346FCF708FAD4E90023BDE89F
:10406000F041FCF75BB900002DE9FF4D054621F05A
:10407000004084B00C46B0F1795F0BDA2846FFF7B8
:1040800037FD042808BF00F06FF8284608B0214625
:10409000BDE8F08D2A460B461046FCF7E6F90646C9
:1040A0000F462A462346FCF7E0F9804626488A4612
:1040B00032463B4605217844FFF780FF834610983F
:1040C000029160B3214A224B40465146FCF7CDF99C
:1040D000CDE900015A4640465146029BFCF7C5F91E
:1040E00082468846DDE906014FF0FF32FCF79EFA72
:1040F00052464346FCF7B3F932463B46FCF7B5F966
:10410000DDE90623FCF7ABF9DDE90023FCF7A7F9AD
:1041100008B02A462346BDE8F04DFCF7A3B90B468C
:104120005A4630463946FCF7A0F9084A084BFCF7D6
:10413000F5F842465346FCF798F908B02A4623465C
:10414000BDE8F04DFCF7EAB8F611000049555555A9
:104150005555C5BF0122FCF769BA00221346104627
:104160001146FCF7F4B90000024A00201107FCF7E1
:104170005DBA000001FDFFFF02E008C8121F08C180
:10418000002AFAD170477047002001E001C1121FD8
:10419000002AFBD170470000014908607047000009
:1041A000F00800202DE9FF4F8DB00F460546002690
:1041B00006E025280BD0DDE90F1290476D1C761C18
:1041C00028780028F5D111B03046BDE8F08F0024E2
:1041D000A246A1460122EC4900E0044315F8013F44
:1041E000203B02FA03F00842F7D128782A2810D0A1
:1041F0006FF02F022878A0F13001092914D80AEBBA
:104200008A0102EB410144F0020400EB010A6D1C3B
:10421000F0E701CF5FEA000A03D544F40054CAF185
:10422000000A44F002046D1C28782E2817D115F8D6
:10423000010F44F004042A280ED06FF02F022878D2
:10424000A0F1300109290AD809EB890102EB4101EB
:1042500000EB01096D1CF2E757F8049B6D1C2878F0
:104260006C280FD006DC4C2817D068280DD06A289F
:1042700014D104E0742810D07A280FD10DE044F452
:1042800000140AE044F4801401E044F44014697816
:10429000814202D104F580146D1C6D1C2A786E2AAF
:1042A0001FD00CDC632A31D004DC002A8BD0582AC2
:1042B00011D1A3E0642A68D0692A0CD165E0732A81
:1042C0002ED004DC6F2A73D0702A04D19BE0752AAB
:1042D0006FD0782A6ED01046DDE90F129047761C19
:1042E00050E1C4F30250022806D0032809D0042864
:1042F00001CF09D0066045E101CFF117C0E90061A7
:1043000040E101CF06803DE106703BE117F8040B68
:104310008DF8000000208DF80100EB46012003E03D
:1043200057F804BB4FF0FF3061074FF0000102D493
:104330000DE008F10101884649450FDA8045F8DBB8
:104340001BF808100029F4D108E008F101018846A3
:104350008142FADB1BF808100029F6D1DDE90F23B2
:10436000AAEB08008146214600F036F9304400EB04
:10437000080604E0DDE90F121BF8010B9047B8F1C5
:104380000108F7D221464846F7E00A21C4F3025358
:104390004FF0000B0891022B04D001CFC117032B63
:1043A00009D00AE0FF1D27F00707F7E8020108E03F
:1043B00032E01FE020E000B2C117042B01D140B26F
:1043C000C117031E71F1000307DA4FF0000CD0EBA8
:1043D0000C006CEB01012D2302E0230504D52B23F7
:1043E0008DF82430012303E0E30701D02023F7E711
:1043F000984658E00A2110E010210EE010204FF0FE
:10440000000B08900CE010214FF0000B44F0040466
:104410004FF00809089103E008214FF0000B0891C4
:10442000C4F30253022B04D001CF0021032B06D08A
:1044300006E0FF1D27F00707F7E8020103E080B25E
:10444000042B00D1C0B24FF0000823072BD5702AEF
:1044500007D0DDF820C08CF0100C5CEA0B0C05D006
:104460000EE040238DF82430012308E050EA0103D8
:1044700006D030238DF824308DF82520022398466D
:10448000DDF820C08CF0080C5CEA0B0C0BD150EA74
:10449000010301D1630706D530238DF824304FF096
:1044A0000108A9F10109582A04D038A20B9208AAE0
:1044B0000A920BE03AA2F9E75B46089AFCF72EF95C
:1044C0000B9B9B5C0A9A521E0A92137050EA0102DF
:1044D000F2D10A98ADEB000000F1200B600702D585
:1044E00024F4803401E04FF00109D94502DDA9EB45
:1044F0000B0000E0002000EB0B0141440890AAEB08
:10450000010AE00306D4DDE90F232146504600F0FE
:1045100063F806444FF0000908E009A911F8090002
:10452000DDE90F12904709F10109761CC145F4DB62
:10453000E0030CD5DDE90F232146504600F04CF88E
:10454000064404E0DDE90F1230209047761C0899FC
:10455000481E08900029F5DC08E00A980A990078BE
:10456000491C0A91DDE90F129047761CBBF100014E
:10457000ABF1010BF1DC21465046DDE90F2300F0E1
:1045800019F806446D1C1BE609280100303132334E
:10459000343536373839616263646566000000007F
:1045A0003031323334353637383941424344454669
:1045B000000000002DE9F041044600251E46174684
:1045C000880404D405E039462020B0476D1C641EE1
:1045D000F9D52846BDE8F0812DE9F04104460025D3
:1045E0001E469046C80301D5302700E020278804E6
:1045F00004D505E041463846B0476D1C641EF9D528
:104600002846BDE8F0810A68531C0B6010707047A3
:104610002DE9F04D0546DFF8388221F000408D4F3E
:1046200082B00C46404520DBA0EB080129430BD0AB
:104630008949884201DC10D17DB102B0284621466B
:10464000BDE8F04DFFF786BD002CC7BF0020014636
:104650008248394602B0BDE8F08D0120FFF79CFD8D
:1046600002B0BDE8F04DFFF778BD7D49884244DADD
:104670007C498142A1BF79487B4902B0BDE8F08DF9
:104680002A46234610461946FBF7EFFE83460246AC
:1046900076480E460B4606217844FFF78FFC5A46B3
:1046A0003346FBF7E2FE074671488A465A463346D0
:1046B00004217844FFF782FC5A463346FBF7D5FEC7
:1046C00000224346FBF72AFE02460B463846514677
:1046D000FBF73DFF2A462346FBF7C7FE654A664BBC
:1046E000FBF7C0FE2A462346FBF7BCFE02B05B4A3E
:1046F000BDE8F04D5C4BFBF7B5BE002C4FF000025F
:104700004BDA4646434628462146FBF707FE4FF064
:10471000FF32FBF78BFF0446024658480D460B4616
:1047200006217844FFF74AFC22462B46FBF79DFE04
:10473000804653488A4622462B4604217844FFF798
:104740003DFC22462B46FBF790FE00223346FBF74A
:10475000E5FD06468B462046294600F0C7FC044688
:104760000D4632465B4640465146FBF7F0FE224678
:104770002B46FBF77AFE3F4A3F4BFBF770FE224683
:104780002B46FBF7CBFD0122FBF750FF02B03B4667
:10479000BDE8F04D314AFBF765BE2D4B284621465A
:1047A000FBF760FE4FF0FF32FBF740FF05460E4679
:1047B00000F09CFC00270C4680463A460B46FBF76F
:1047C000ADFD82468B463A46234610461946FBF716
:1047D0004CFE2A463346FBF745FE52465B46FBF746
:1047E000B6FE824627488B462A4633460621784441
:1047F000FFF7E4FB2A463346FBF737FECDE900011D
:1048000021482A46334604217844FFF7D7FB2A463D
:104810003346FBF72AFE00220D4BFBF77FFD0246D5
:104820000B46DDE90001FBF792FE42462346FBF70B
:104830001CFE52465B46FBF771FD3A462346FBF7EA
:104840006DFD02B00122BDE8F04DFBF7EFBE0000A8
:104850000000F03FFB2109400000F07F182D445478
:104860000000E03F0000603CFB21F93FCC0A000063
:10487000E20A0000075C143326A6913C420A0000BD
:10488000580A0000760900008C09000000B5244B8E
:1048900021F0004287B09A42DCBF0022134629DD96
:1048A000204B9A4208D140B94FF00100FFF774FC49
:1048B000FFF753FC07B000BD03DBFFF74BFC07B06D
:1048C00000BD02AAFFF738F910F0030104BF0DF193
:1048D000080C9CE80F000DD0012001290ED0022900
:1048E00014D00DF1080C00909CE80F00FFF7BCFB02
:1048F00007B000BDFFF7E4FA07B000BD0DF1080CEA
:1049000000909CE80F00FFF7AFFB05E00DF1080CED
:104910009CE80F00FFF7D4FA07B081F0004100BD1A
:10492000FB21E93F0000F07F70B51A491B4C91F85C
:104930003B201949052A04D2DFE802F003090B0DD8
:104940000F00216010F1FF4F09D300200FE0144940
:10495000F7E71449F5E71449F3E71449F1E7144977
:10496000884201DD134802E01349FBF767FCFBF7BF
:104970009BFE00F025F80546A06000200F4900F0DE
:104980001FF801462846FBF78BFC6168BDE87040C4
:10499000FBF754BC68090020AAF1D23DB8080020FA
:1049A00060E5D03D17D9CE3DCDCCCC3DF163CC3DBB
:1049B000B29D6F3E00006A4300007A4400406D40A3
:1049C00010B54FF0FF32FBF731FE174A174BFBF7DC
:1049D00049FD174A174BFBF7BAFDFBF778FE16495E
:1049E000884202D8B0F17E5F01DD084610BDFBF7BA
:1049F0005BFEFFF70DFE0022104BFBF736FD4FF07C
:104A0000C0420F4BFBF7A3FDFBF761FEFBF74CFE2B
:104A10000C4A0D4BFBF723FD00220C4BFBF797FDD7
:104A2000BDE81040FBF753BE14AE47E17A543D4059
:104A300052B81E85EB615F40000080BF0080664079
:104A4000B81E09408FC2F5285C1F534000805640B5
:104A500013B54FF47A73012269460248FEF7BCF998
:104A600001201CBDD80F002005290ED101784D2949
:104A70000BD14178432908D18178552905D1C178D6
:104A8000492902D10079442801D000207047012033
:104A90007047000008B5FDF7CBF9FEF7D7FBFEF72E
:104AA0008DFAFEF76DFAFEF721FBFEF7ADFBFEF780
:104AB00025FAFEF7DBFAFEF773FBFEF7F7FAFEF7CF
:104AC0003BFBD848FDF7E2FDD748FDF7DFFDD74EA9
:104AD0000024B460D64D01274FF4FE722C756C741F
:104AE000EF763470D349D448FEF766F9D2480068AF
:104AF000C16841F01001C160DFF844B3CF494FF401
:104B00007A7AA946DFF83C83CBF8001000F0C4FAAB
:104B100000F09CFA707801280CD1B07850B9DBF81D
:104B20000000FBF7A8FD3369B2680146C6A0FEF796
:104B3000BBFFB770F77099F8100001281AD1FDF784
:104B40004DF8D04D2860FDF74FF86860FDF752F83A
:104B5000A860296800910246CBA105F10C006B68A2
:104B6000FEF7B2FF81B2F18005F10C00FEF7FCFD0B
:104B700089F8104099F820004D46012813D1C94901
:104B800098F836208A7298F83520CA7298F834203E
:104B90000A7398F833004873C3480188C148FCF78A
:104BA00025F885F82040B088322847D998F82C009D
:104BB000414698B3B1F92D0010F10F0F3EDAB1F96B
:104BC0001C000A283ADC10F10A0F37DBD8F818006D
:104BD000F168401A00D5404205282FDAB06910B9B3
:104BE000FCF7F6FF7061B069401CB0613078B0B975
:104BF000FCF7EEFF7169401A504510D9D8F818003B
:104C0000B0602F753770B461FCF7E2FF7061B06877
:104C100042F210710144C8F8041046E00EE030780A
:104C2000012842D1FCF7D4FF7169401A50453CD9A4
:104C3000D8F81810C8F80410B46136E0B461D8F898
:104C40001800F0603078414601282ED1B1F92D00CE
:104C500096282ADDB1F91C00052826DC10F1050F85
:104C600023DBFCF7B5FF7169401A50451DD97078F8
:104C7000D8B9D8F8180030617770B268C8F8042045
:104C8000A97F012911D1B16841F29343421AD01A88
:104C900000907C4885A10C30FEF716FF81B2794860
:104CA000F1800C30FEF760FDAC77687E01284FD1B3
:104CB000D8F81800B1684346411A00D54942F1615D
:104CC0002A7D12B1012A2BD056E06A7D12B1012A49
:104CD0000AD053E06FF03B02AA83F278F2BB00F5F2
:104CE0004872B260AF746F75F2783C22AA83AA7CD6
:104CF000012A05D1F278012A02D11E30B060AC74CD
:104D0000A1F5A05143F2A4509439814236D2B3F9AF
:104D10001C001D303B2831D22F756C75AF7602E038
:104D2000A87E01283CD1A87D0F2839D96848FCF716
:104D30003DF8F069FCF784F8E875FCF755F832386F
:104D4000FBF794FCCBF8000062A0FEF7ADFEAC765A
:104D5000687E68B101280FD0002800E00EE07FF4E3
:104D6000D5AEE87EE0B198F92C10502918DC1AE095
:104D70006FF03B00A883F4E7287D48B9B5F91C2003
:104D800042F210704243C82140F24110FBF7F0FE9E
:104D9000287D012804D098F92C0050287FF7B6AE62
:104DA000002201212BE0297D31B10128D7D1012931
:104DB000D5D1A87F48B117E00128D0D14A484C4A44
:104DC000962104634948046319E0D8F83F00FFF7CF
:104DD000ABFD0546B068FBF740FC2946FBF7D6F96A
:104DE000FBF749FCC8F8040098F83C0001280BD0F8
:104DF00096253E48C069FBF73EFC0246294640F234
:104E00004110FBF7B5FE81E6B8F83D0005B24FF45E
:104E1000FA70854201DD0546EBE7642DE9DA642589
:104E2000E7E70000440B0020FC0A002000000020FF
:104E300050130020A8100020D80F00200098A4458F
:104E4000BC080020680900200D0A3E3E3E20414E6D
:104E5000474C455F4D4158203D2025642C204D6F27
:104E6000746F72496E6974203D2025642C204D6F4B
:104E7000746F724D6178203D202564203C3C3C0DD0
:104E80000A000000F40800206461730D0A25303820
:104E90006C582530386C582530386C586461730D67
:104EA0000A000000BA060020A00800206461730D0B
:104EB0000A434845434B5F6D65617325645F7468C1
:104EC000656F25645F64657625646461730D0A000F
:104ED00000FC000843616C6962726174696F6E2046
:104EE0004F4B202100000000C81200200C130020AE
:104EF000B0B9FFFF10B56FF00102FBF797FB00227E
:104F0000124BFBF7B2FA124A124BFBF707FA4FF0BB
:104F1000C042114BFBF7A9FA0022104BFBF717FB1D
:104F2000FBF7D5FBFBF7C0FBFFF7B0FC0C4A0D4BC2
:104F3000FBF79BFA0C4A0D4BFBF794FA0122FBF7A7
:104F400075FBBDE81040FBF7C2BB00000080764057
:104F50008FC2F5285C1F5340B81E09400080664090
:104F600052B81E85EB615F4014AE47E17A543D4074
:104F70002DE9F0411746069E0446C3600A46C06A02
:104F8000606386F0004539461046FBF751F9E06250
:104F9000226B01461046FBF7F9F867612063616AEE
:104FA000FBF7B2FB01D2606A2063606A216B80F07C
:104FB0000040FBF7A9FB03D2606A80F00040206349
:104FC000D4E90501FBF734F9E168FBF737F931461D
:104FD0002061FBF799FB00D2266128462169FBF787
:104FE00093FB00D22561E56A616B2846FBF720F947
:104FF000A168FBF723F90646216B6068FBF71EF9F1
:10500000074629462068FBF719F93946FBF7BEF831
:105010003146FBF7BBF82169FBF7B8F8E06161693D
:10502000A161A16AFBF770FB01D2A06AE061A06AEE
:10503000E16980F00040FBF767FB02D3E069BDE85F
:10504000F081A06A80F00040E061F8E7F8B50F4C0D
:10505000A069FBF702FB07466068FBF7FEFA014612
:105060000B4D4FF07E5633463A460A480095FFF7FF
:105070007FFFB4F92F00FBF7F0FA024605480095D0
:105080003346C1694430FFF773FFF8BD680900205B
:105090000000A042C81200200CB50D48D0E9031250
:1050A000CDE9001290E80E000A4800F017F8084811
:1050B0001430D0E90312CDE9001290E80E00054843
:1050C000443000F00BF804490420C1F837000CBD4F
:1050D000C4080020C81200206809002030B5DDE9AE
:1050E000034580E80E00C0E9094530BD2DE9F041D7
:1050F00006460F46FBF70AFC041E0D4618BF0120AA
:10510000284320F00040C0F17F6000F1E040C00F74
:105110000ED0301C18BF0120384320F00040C0F1F1
:105120007F6000F1E040C00F04BF0120FFF734F8BA
:1051300020462946BDE8F081010202030405060766
:1051400008090A0B0C0D0E0F1010000000000000E3
:105150000000010203040607080900000000010224
:105160000304000000000000555555555555C53F36
:105170007D6FEB0312D6D4BF5544880E55C1C93F8D
:105180003B8F68B52882A4BF88B20175E0EF493F24
:1051900009F7FD0DE13D023F4B2D8A1C273A03C064
:1051A000C88A599CE52A004059018D1B6C06E6BF50
:1051B00082922EB1C5B8B33F4C5555555555A53FB4
:1051C0007751C1166CC156BF9015CB19A001FA3E9C
:1051D000AD529C804F7E92BEC4B1B4BD9EEE213EC6
:1051E000D43888BEE9FAA8BD00004054FB21F93F3D
:1051F0003163621A61B4D03D0000601A61B4D03DE1
:105200007370032E8A19A33B0000002E8A19A33B5A
:10521000C14920259A837B3900000000000000006E
:105220006E83F9A22915444ED15727FCC0DD34F511
:10523000999562DB4190433CAB6351FE61C5BBDE97
:105240003A6E24B7E0D24D42EA2E49061C92D109AB
:105250001CEB1DFE3EA729B1F53582E88444BB2E28
:1052600026709CE9417E5FB439D69139F439538375
:105270008B5F849C3B28F9BDFF97F81F0F9805DED4
:105280008B112FEF1F6D0A5ACF7E366DB709CB27D2
:10529000663F464F2DEA5F9EC7BA27757BF1E5EB67
:1052A000F739073DEA92528AB15FFB6B085D8D1FAB
:1052B000A6F810111111813FD561C119A0012ABFB3
:1052C0007DFEB157E31DC73EEB9C2B8AE6E55ABE37
:1052D0007CD5CF5A3AD9E53DF852000800000020AD
:1052E000F4080000280A0008C8580008F408002044
:1052F0005C14000088410008014635A08B02402C58
:105300003F7040081E803FF1F301082DC03F1AA6F0
:1053100008112C40F756082D2040850608154040FE
:10532000CCB419082D6040D461082D8040990D0837
:105330001F90403F70FF3F4E1D40D7C2FE082DB06A
:10534000400A13081EC040D060FD081ED04032AC99
:10535000FC081EE04041F5FB082DF040F33B08112E
:105360001D416380FA081E08417FC2F9082D1041D3
:105370006002081E1841FF3FF8081E20416C7BF7B1
:10538000081E28419EB4F6081E3041A7EBF5082DF3
:1053900038418620081E40414353F4081E4841E02E
:1053A00083F3081E50416CB2F2081E5841DFDEF153
:1053B000082D60414209081E68419C31F0081E70AA
:1053C00041EF57EF081E7841427CEE081E80419560
:1053D0009EED081E8441F0BEEC081E884155DDEBB1
:1053E000081E8C41CAF9EA082D90415914081E94F0
:1053F00041F92CE9081E9841BB43E8082E9C4197CF
:1054000058E7F01D419C6BE6081EA441C47CE508EA
:105410001EA8411E8CE4081EAC41A299E3081EB0F0
:105420004159A5E2081EB4414BAFE1081EB8416FD7
:10543000B7E0081EBC41D7BDDF081EC0417AC2DEFE
:10544000081EC44169C5DD081EC8419BC6DC081E94
:10545000CC4119C6DB081ED041EBC3DA081ED4418B
:1054600009C0D9081ED8417CBAD8081EDC4142B315
:10547000D7081EE0416DAAD6081EE441ED9FD5086D
:105480001EE841D193D4081EEC411286D3081EF0C9
:1054900041C076D2081EF441DC65D1081EF8415D9A
:1054A00053D0081EFC414B3FCF08111D42AE29CE00
:1054B000081E02428812CD081E0442D7F9CB081EEE
:1054C00006429CDFCA081E0842DFC3C9081E0A4202
:1054D000A0A6C8081E0C42DF87C7081E0E42A5679B
:1054E000C6081E1042F145C5081E1242C422C40857
:1054F0001E14421EFEC2081E164206D8C1081E18FF
:10550000427DB0C0081E1A428B87BF081E1C42296C
:105510005DBE081E1E425531BD081E20422104BC3E
:10552000081E224284D5BA081E24427FA5B9081E4F
:1055300026421974B8081E28425B41B7081E2A4249
:10554000350DB6081E2C42B6D7B4081E2E42D7A081
:10555000B3081E3042A168B2081E32421B2FB108A8
:105560001E344234F4AF081E364206B8AE081E3868
:1055700042817AAD081E3A42A33BAC081E3C427FF2
:10558000FBAA081E3E420ABAA9081E40424F77A84D
:10559000081E42424433A7081E4442F2EDA5081EED
:1055A000464261A7A4081E4842815FA3081E4A42E2
:1055B0006116A2081E4C42FBCBA0081E4E4256802C
:1055C0009F081E504272339E081E52424FE59C08AF
:1055D0001E5442EE959B081E56424E459A081E5890
:1055E000426FF398081E5A425AA097081E5C420E5A
:1055F0004C96081E5E428CF694081E6042CB9F9328
:10560000081E6242DC4792081E6442B7EE90081EF4
:10561000664253948F081E6842C9388E081E6A423B
:105620000ADC8C081E6C42137E8B081E6E42EF1E35
:105630008A081E70429DBE88081E7242145D87084B
:105640001E744266FA85081E7642819684081E788A
:1056500042773183081E7A423ECB81081E7C42D0BD
:105660006380081E7E4277F67D081E804203237BFE
:10567000081E8142234D78081E8242F77475081E69
:105680008342709A72081E84429DBD6F081E854237
:105690006EDE6C081E8642F4FC69081E87421E19E5
:1056A00067081E8842EC3264081E89425E4A61081F
:1056B0001E8A42965F5E081E8B4260725B081E8CDB
:1056C00042E08258081E8D42049155081E8E42DC2D
:1056D0009C52081E8F4248A64F081E904269AD4C4E
:1056E000081E91422DB249081E924296B446081EE9
:1056F0009342A2B443081E944253B240081E9542FE
:10570000A7AD3D081E96428FA63A081E97421B9DE4
:1057100037081E98424B9134081E9942FD82310889
:105720001E9A4254722E081E9B423D5F2B081E9CFF
:1057300042BA4928081E9D42BA3125081E9E425D84
:105740001722081E9F4272FA1E081EA0421ADB1B77
:10575000081EA14234B918081EA242D19415081E91
:10576000A342F06D12081EA44280440F081EA542F9
:1057700072180C081EA642E6E908081EA742BBB82C
:1057800005081EA842F184020827A942ED9CFE3EAE
:105790001EAA42DC2AF8081EAB424AB3F1081EAC2E
:1057A000425936EB081EAD42E5B3E4081EAE42F1A5
:1057B0002BDE081EAF427C9ED7081EB042410BD1A3
:1057C000081EB1428672CA081EB242E5D3C3081E43
:1057D000B3427F2FBD081EB4423485B6081EB542C1
:1057E00002D5AF081EB642C91EA9081EB74267629D
:1057F000A2081EB842DC9F9B081EB94228D7940815
:105800001EBA42E6078E081EBB42593287081EBCEC
:10581000423F5680081EBD42EBE672081EBE42F9AA
:105820001365081EBF42223357081EC042AA4449CE
:10583000081EC142C7473B081EC242BC3C2D081E81
:10584000C342C0221F081EC44216FA10081EC542D9
:105850007AC2020827C64249F6E83D1EC7422848D8
:10586000CC081EC8420B7AAF081EC942E78A9208CC
:105870001ECA4277F56A081ECB42F790300827CC43
:10588000426CCCEB3C1ECD429ED06B087009CE42E0
:105890007B698A3801024204BA020E620103FF01E9
:1058A000C001C2120E43D7012905821013127AA536
:1058B000AAF1D23D93F04114C0794424BA5B49CA9D
:0858C000C8141B6E3E146100C8
:04000005080000ED02
:00000001FF
